{
  "_format": "hh-sol-artifact-1",
  "contractName": "PassphraseVault",
  "sourceName": "contracts/Vault.sol",
  "abi": [
    {
      "anonymous": false,
      "inputs": [
        {
          "indexed": true,
          "internalType": "address",
          "name": "collector",
          "type": "address"
        },
        {
          "indexed": true,
          "internalType": "address",
          "name": "token",
          "type": "address"
        },
        {
          "indexed": false,
          "internalType": "uint256",
          "name": "amount",
          "type": "uint256"
        },
        {
          "indexed": true,
          "internalType": "bytes32",
          "name": "depositId",
          "type": "bytes32"
        }
      ],
      "name": "Claimed",
      "type": "event"
    },
    {
      "anonymous": false,
      "inputs": [
        {
          "indexed": true,
          "internalType": "address",
          "name": "depositor",
          "type": "address"
        },
        {
          "indexed": true,
          "internalType": "address",
          "name": "token",
          "type": "address"
        },
        {
          "indexed": false,
          "internalType": "uint256",
          "name": "amount",
          "type": "uint256"
        },
        {
          "indexed": true,
          "internalType": "bytes32",
          "name": "depositId",
          "type": "bytes32"
        },
        {
          "indexed": false,
          "internalType": "uint256",
          "name": "unlockTime",
          "type": "uint256"
        }
      ],
      "name": "Deposited",
      "type": "event"
    },
    {
      "anonymous": false,
      "inputs": [
        {
          "indexed": true,
          "internalType": "address",
          "name": "depositor",
          "type": "address"
        },
        {
          "indexed": true,
          "internalType": "address",
          "name": "token",
          "type": "address"
        },
        {
          "indexed": false,
          "internalType": "uint256",
          "name": "amount",
          "type": "uint256"
        },
        {
          "indexed": true,
          "internalType": "bytes32",
          "name": "depositId",
          "type": "bytes32"
        }
      ],
      "name": "Refunded",
      "type": "event"
    },
    {
      "inputs": [
        {
          "internalType": "bytes32",
          "name": "depositId",
          "type": "bytes32"
        },
        {
          "internalType": "string",
          "name": "passphrase",
          "type": "string"
        }
      ],
      "name": "claim",
      "outputs": [],
      "stateMutability": "nonpayable",
      "type": "function"
    },
    {
      "inputs": [
        {
          "internalType": "bytes32",
          "name": "depositId",
          "type": "bytes32"
        },
        {
          "internalType": "uint8",
          "name": "v",
          "type": "uint8"
        },
        {
          "internalType": "bytes32",
          "name": "r",
          "type": "bytes32"
        },
        {
          "internalType": "bytes32",
          "name": "s",
          "type": "bytes32"
        }
      ],
      "name": "claimWithSignature",
      "outputs": [],
      "stateMutability": "nonpayable",
      "type": "function"
    },
    {
      "inputs": [
        {
          "internalType": "address",
          "name": "token",
          "type": "address"
        },
        {
          "internalType": "uint256",
          "name": "amount",
          "type": "uint256"
        },
        {
          "internalType": "string",
          "name": "passphrase",
          "type": "string"
        },
        {
          "internalType": "uint256",
          "name": "unlockTime",
          "type": "uint256"
        }
      ],
      "name": "deposit",
      "outputs": [],
      "stateMutability": "nonpayable",
      "type": "function"
    },
    {
      "inputs": [
        {
          "internalType": "address",
          "name": "",
          "type": "address"
        },
        {
          "internalType": "uint256",
          "name": "",
          "type": "uint256"
        }
      ],
      "name": "depositorDeposits",
      "outputs": [
        {
          "internalType": "bytes32",
          "name": "",
          "type": "bytes32"
        }
      ],
      "stateMutability": "view",
      "type": "function"
    },
    {
      "inputs": [
        {
          "internalType": "bytes32",
          "name": "",
          "type": "bytes32"
        }
      ],
      "name": "deposits",
      "outputs": [
        {
          "internalType": "address",
          "name": "depositor",
          "type": "address"
        },
        {
          "internalType": "address",
          "name": "token",
          "type": "address"
        },
        {
          "internalType": "uint256",
          "name": "amount",
          "type": "uint256"
        },
        {
          "internalType": "bytes32",
          "name": "passphraseHash",
          "type": "bytes32"
        },
        {
          "internalType": "uint256",
          "name": "unlockTime",
          "type": "uint256"
        }
      ],
      "stateMutability": "view",
      "type": "function"
    },
    {
      "inputs": [
        {
          "internalType": "address",
          "name": "depositor",
          "type": "address"
        }
      ],
      "name": "getDepositorDeposits",
      "outputs": [
        {
          "internalType": "bytes32[]",
          "name": "",
          "type": "bytes32[]"
        }
      ],
      "stateMutability": "view",
      "type": "function"
    },
    {
      "inputs": [
        {
          "internalType": "bytes32",
          "name": "depositId",
          "type": "bytes32"
        }
      ],
      "name": "refund",
      "outputs": [],
      "stateMutability": "nonpayable",
      "type": "function"
    }
  ],
  "bytecode": "0x6080604052348015600f57600080fd5b50611d898061001f6000396000f3fe608060405234801561001057600080fd5b506004361061007d5760003560e01c8063344095871161005b57806334409587146100ea5780633d4dff7b1461010657806341a5e3401461013a5780637249fbb61461016a5761007d565b806311e84c711461008257806320ee3df81461009e5780632762c75a146100ce575b600080fd5b61009c600480360381019061009791906111af565b610186565b005b6100b860048036038101906100b39190611269565b6103be565b6040516100c59190611354565b60405180910390f35b6100e860048036038101906100e391906113ac565b610455565b005b61010460048036038101906100ff9190611468565b610760565b005b610120600480360381019061011b91906114cf565b610aae565b604051610131959493929190611529565b60405180910390f35b610154600480360381019061014f919061157c565b610b24565b60405161016191906115bc565b60405180910390f35b610184600480360381019061017f91906114cf565b610b55565b005b6000806000848152602001908152602001600020905060008160020154116101e3576040517f08c379a00000000000000000000000000000000000000000000000000000000081526004016101da90611634565b60405180910390fd5b806004015442101561022a576040517f08c379a0000000000000000000000000000000000000000000000000000000008152600401610221906116a0565b60405180910390fd5b8060030154826040516020016102409190611731565b6040516020818303038152906040528051906020012014610296576040517f08c379a000000000000000000000000000000000000000000000000000000000815260040161028d90611794565b60405180910390fd5b60008160020154905060008260010160009054906101000a900473ffffffffffffffffffffffffffffffffffffffff169050600083600201819055508073ffffffffffffffffffffffffffffffffffffffff1663a9059cbb33846040518363ffffffff1660e01b815260040161030d9291906117b4565b6020604051808303816000875af115801561032c573d6000803e3d6000fd5b505050506040513d601f19601f820116820180604052508101906103509190611815565b50848173ffffffffffffffffffffffffffffffffffffffff163373ffffffffffffffffffffffffffffffffffffffff167fe02419f043b7b0cfa90f0f7689b84253f6ba6536dc96157b1443bd54072b8146856040516103af9190611842565b60405180910390a45050505050565b6060600160008373ffffffffffffffffffffffffffffffffffffffff1673ffffffffffffffffffffffffffffffffffffffff16815260200190815260200160002080548060200260200160405190810160405280929190818152602001828054801561044957602002820191906000526020600020905b815481526020019060010190808311610435575b50505050509050919050565b428111610497576040517f08c379a000000000000000000000000000000000000000000000000000000000815260040161048e906118cf565b60405180910390fd5b6000826040516020016104aa9190611731565b604051602081830303815290604052805190602001209050600033868684866040516020016104dd959493929190611979565b6040516020818303038152906040528051906020012090506040518060a001604052803373ffffffffffffffffffffffffffffffffffffffff1681526020018773ffffffffffffffffffffffffffffffffffffffff1681526020018681526020018381526020018481525060008083815260200190815260200160002060008201518160000160006101000a81548173ffffffffffffffffffffffffffffffffffffffff021916908373ffffffffffffffffffffffffffffffffffffffff16021790555060208201518160010160006101000a81548173ffffffffffffffffffffffffffffffffffffffff021916908373ffffffffffffffffffffffffffffffffffffffff160217905550604082015181600201556060820151816003015560808201518160040155905050600160003373ffffffffffffffffffffffffffffffffffffffff1673ffffffffffffffffffffffffffffffffffffffff1681526020019081526020016000208190806001815401808255809150506001900390600052602060002001600090919091909150558573ffffffffffffffffffffffffffffffffffffffff166323b872dd3330886040518463ffffffff1660e01b81526004016106ac939291906119d8565b6020604051808303816000875af11580156106cb573d6000803e3d6000fd5b505050506040513d601f19601f820116820180604052508101906106ef9190611815565b50808673ffffffffffffffffffffffffffffffffffffffff163373ffffffffffffffffffffffffffffffffffffffff167fd15d544f7d2be76097ef25c733ee42a9a120eb6392f0ba80e15081504d3fe3c08887604051610750929190611a0f565b60405180910390a4505050505050565b600080600086815260200190815260200160002090506107b46040518060400160405280600d81526020017f536f6c6964697479204c6f677300000000000000000000000000000000000000815250610d6b565b6107bd85610e04565b6000816002015411610804576040517f08c379a00000000000000000000000000000000000000000000000000000000081526004016107fb90611a84565b60405180910390fd5b806004015442101561084b576040517f08c379a0000000000000000000000000000000000000000000000000000000008152600401610842906116a0565b60405180910390fd5b60008560405160200161085e9190611af0565b60405160208183030381529060405280519060200120905060006001828787876040516000815260200160405260405161089b9493929190611b25565b6020604051602081039080840390855afa1580156108bd573d6000803e3d6000fd5b5050506020604051035190506108d58660ff16610e9d565b6108de85610e04565b6108e784610e04565b6108f081610f36565b8260000160009054906101000a900473ffffffffffffffffffffffffffffffffffffffff1673ffffffffffffffffffffffffffffffffffffffff168173ffffffffffffffffffffffffffffffffffffffff1614610982576040517f08c379a000000000000000000000000000000000000000000000000000000000815260040161097990611bb6565b60405180910390fd5b60008360020154905060008460010160009054906101000a900473ffffffffffffffffffffffffffffffffffffffff169050600085600201819055508073ffffffffffffffffffffffffffffffffffffffff1663a9059cbb33846040518363ffffffff1660e01b81526004016109f99291906117b4565b6020604051808303816000875af1158015610a18573d6000803e3d6000fd5b505050506040513d601f19601f82011682018060405250810190610a3c9190611815565b50888173ffffffffffffffffffffffffffffffffffffffff163373ffffffffffffffffffffffffffffffffffffffff167fe02419f043b7b0cfa90f0f7689b84253f6ba6536dc96157b1443bd54072b814685604051610a9b9190611842565b60405180910390a4505050505050505050565b60006020528060005260406000206000915090508060000160009054906101000a900473ffffffffffffffffffffffffffffffffffffffff16908060010160009054906101000a900473ffffffffffffffffffffffffffffffffffffffff16908060020154908060030154908060040154905085565b60016020528160005260406000208181548110610b4057600080fd5b90600052602060002001600091509150505481565b600080600083815260200190815260200160002090506000816002015411610bb2576040517f08c379a0000000000000000000000000000000000000000000000000000000008152600401610ba990611c22565b60405180910390fd5b8060000160009054906101000a900473ffffffffffffffffffffffffffffffffffffffff1673ffffffffffffffffffffffffffffffffffffffff163373ffffffffffffffffffffffffffffffffffffffff1614610c44576040517f08c379a0000000000000000000000000000000000000000000000000000000008152600401610c3b90611c8e565b60405180910390fd5b60008160020154905060008260010160009054906101000a900473ffffffffffffffffffffffffffffffffffffffff169050600083600201819055508073ffffffffffffffffffffffffffffffffffffffff1663a9059cbb33846040518363ffffffff1660e01b8152600401610cbb9291906117b4565b6020604051808303816000875af1158015610cda573d6000803e3d6000fd5b505050506040513d601f19601f82011682018060405250810190610cfe9190611815565b50838173ffffffffffffffffffffffffffffffffffffffff163373ffffffffffffffffffffffffffffffffffffffff167fe9b6f9768b7ccc9699eeeeea17df56d02066564351803700051b42cfaefb1b1985604051610d5d9190611842565b60405180910390a450505050565b610e0181604051602401610d7f9190611ce7565b6040516020818303038152906040527f41304fac000000000000000000000000000000000000000000000000000000007bffffffffffffffffffffffffffffffffffffffffffffffffffffffff19166020820180517bffffffffffffffffffffffffffffffffffffffffffffffffffffffff8381831617835250505050610fcf565b50565b610e9a81604051602401610e1891906115bc565b6040516020818303038152906040527f27b7cf85000000000000000000000000000000000000000000000000000000007bffffffffffffffffffffffffffffffffffffffffffffffffffffffff19166020820180517bffffffffffffffffffffffffffffffffffffffffffffffffffffffff8381831617835250505050610fcf565b50565b610f3381604051602401610eb19190611842565b6040516020818303038152906040527ff82c50f1000000000000000000000000000000000000000000000000000000007bffffffffffffffffffffffffffffffffffffffffffffffffffffffff19166020820180517bffffffffffffffffffffffffffffffffffffffffffffffffffffffff8381831617835250505050610fcf565b50565b610fcc81604051602401610f4a9190611d09565b6040516020818303038152906040527f2c2ecbc2000000000000000000000000000000000000000000000000000000007bffffffffffffffffffffffffffffffffffffffffffffffffffffffff19166020820180517bffffffffffffffffffffffffffffffffffffffffffffffffffffffff8381831617835250505050610fcf565b50565b610fe681610fde610fe961100a565b63ffffffff16565b50565b60006a636f6e736f6c652e6c6f679050600080835160208501845afa505050565b611015819050919050565b61101d611d24565b565b6000604051905090565b600080fd5b600080fd5b6000819050919050565b61104681611033565b811461105157600080fd5b50565b6000813590506110638161103d565b92915050565b600080fd5b600080fd5b6000601f19601f8301169050919050565b7f4e487b7100000000000000000000000000000000000000000000000000000000600052604160045260246000fd5b6110bc82611073565b810181811067ffffffffffffffff821117156110db576110da611084565b5b80604052505050565b60006110ee61101f565b90506110fa82826110b3565b919050565b600067ffffffffffffffff82111561111a57611119611084565b5b61112382611073565b9050602081019050919050565b82818337600083830152505050565b600061115261114d846110ff565b6110e4565b90508281526020810184848401111561116e5761116d61106e565b5b611179848285611130565b509392505050565b600082601f83011261119657611195611069565b5b81356111a684826020860161113f565b91505092915050565b600080604083850312156111c6576111c5611029565b5b60006111d485828601611054565b925050602083013567ffffffffffffffff8111156111f5576111f461102e565b5b61120185828601611181565b9150509250929050565b600073ffffffffffffffffffffffffffffffffffffffff82169050919050565b60006112368261120b565b9050919050565b6112468161122b565b811461125157600080fd5b50565b6000813590506112638161123d565b92915050565b60006020828403121561127f5761127e611029565b5b600061128d84828501611254565b91505092915050565b600081519050919050565b600082825260208201905092915050565b6000819050602082019050919050565b6112cb81611033565b82525050565b60006112dd83836112c2565b60208301905092915050565b6000602082019050919050565b600061130182611296565b61130b81856112a1565b9350611316836112b2565b8060005b8381101561134757815161132e88826112d1565b9750611339836112e9565b92505060018101905061131a565b5085935050505092915050565b6000602082019050818103600083015261136e81846112f6565b905092915050565b6000819050919050565b61138981611376565b811461139457600080fd5b50565b6000813590506113a681611380565b92915050565b600080600080608085870312156113c6576113c5611029565b5b60006113d487828801611254565b94505060206113e587828801611397565b935050604085013567ffffffffffffffff8111156114065761140561102e565b5b61141287828801611181565b925050606061142387828801611397565b91505092959194509250565b600060ff82169050919050565b6114458161142f565b811461145057600080fd5b50565b6000813590506114628161143c565b92915050565b6000806000806080858703121561148257611481611029565b5b600061149087828801611054565b94505060206114a187828801611453565b93505060406114b287828801611054565b92505060606114c387828801611054565b91505092959194509250565b6000602082840312156114e5576114e4611029565b5b60006114f384828501611054565b91505092915050565b6115058161122b565b82525050565b61151481611376565b82525050565b61152381611033565b82525050565b600060a08201905061153e60008301886114fc565b61154b60208301876114fc565b611558604083018661150b565b611565606083018561151a565b611572608083018461150b565b9695505050505050565b6000806040838503121561159357611592611029565b5b60006115a185828601611254565b92505060206115b285828601611397565b9150509250929050565b60006020820190506115d1600083018461151a565b92915050565b600082825260208201905092915050565b7f4e6f20746f6b656e7320746f20636c61696d0000000000000000000000000000600082015250565b600061161e6012836115d7565b9150611629826115e8565b602082019050919050565b6000602082019050818103600083015261164d81611611565b9050919050565b7f5661756c74206973206c6f636b65640000000000000000000000000000000000600082015250565b600061168a600f836115d7565b915061169582611654565b602082019050919050565b600060208201905081810360008301526116b98161167d565b9050919050565b600081519050919050565b600081905092915050565b60005b838110156116f45780820151818401526020810190506116d9565b60008484015250505050565b600061170b826116c0565b61171581856116cb565b93506117258185602086016116d6565b80840191505092915050565b600061173d8284611700565b915081905092915050565b7f496e76616c696420706173737068726173650000000000000000000000000000600082015250565b600061177e6012836115d7565b915061178982611748565b602082019050919050565b600060208201905081810360008301526117ad81611771565b9050919050565b60006040820190506117c960008301856114fc565b6117d6602083018461150b565b9392505050565b60008115159050919050565b6117f2816117dd565b81146117fd57600080fd5b50565b60008151905061180f816117e9565b92915050565b60006020828403121561182b5761182a611029565b5b600061183984828501611800565b91505092915050565b6000602082019050611857600083018461150b565b92915050565b7f556e6c6f636b2074696d65206d75737420626520696e2074686520667574757260008201527f6500000000000000000000000000000000000000000000000000000000000000602082015250565b60006118b96021836115d7565b91506118c48261185d565b604082019050919050565b600060208201905081810360008301526118e8816118ac565b9050919050565b60008160601b9050919050565b6000611907826118ef565b9050919050565b6000611919826118fc565b9050919050565b61193161192c8261122b565b61190e565b82525050565b6000819050919050565b61195261194d82611376565b611937565b82525050565b6000819050919050565b61197361196e82611033565b611958565b82525050565b60006119858288611920565b6014820191506119958287611920565b6014820191506119a58286611941565b6020820191506119b58285611962565b6020820191506119c58284611941565b6020820191508190509695505050505050565b60006060820190506119ed60008301866114fc565b6119fa60208301856114fc565b611a07604083018461150b565b949350505050565b6000604082019050611a24600083018561150b565b611a31602083018461150b565b9392505050565b7f4e6f206465706f73697420666f756e6400000000000000000000000000000000600082015250565b6000611a6e6010836115d7565b9150611a7982611a38565b602082019050919050565b60006020820190508181036000830152611a9d81611a61565b9050919050565b7f19457468657265756d205369676e6564204d6573736167653a0a333200000000600082015250565b6000611ada601c836116cb565b9150611ae582611aa4565b601c82019050919050565b6000611afb82611acd565b9150611b078284611962565b60208201915081905092915050565b611b1f8161142f565b82525050565b6000608082019050611b3a600083018761151a565b611b476020830186611b16565b611b54604083018561151a565b611b61606083018461151a565b95945050505050565b7f496e76616c6964207369676e6174757265000000000000000000000000000000600082015250565b6000611ba06011836115d7565b9150611bab82611b6a565b602082019050919050565b60006020820190508181036000830152611bcf81611b93565b9050919050565b7f4e6f20746f6b656e7320746f20726566756e6400000000000000000000000000600082015250565b6000611c0c6013836115d7565b9150611c1782611bd6565b602082019050919050565b60006020820190508181036000830152611c3b81611bff565b9050919050565b7f4e6f7420617574686f72697a6564000000000000000000000000000000000000600082015250565b6000611c78600e836115d7565b9150611c8382611c42565b602082019050919050565b60006020820190508181036000830152611ca781611c6b565b9050919050565b6000611cb9826116c0565b611cc381856115d7565b9350611cd38185602086016116d6565b611cdc81611073565b840191505092915050565b60006020820190508181036000830152611d018184611cae565b905092915050565b6000602082019050611d1e60008301846114fc565b92915050565b7f4e487b7100000000000000000000000000000000000000000000000000000000600052605160045260246000fdfea26469706673582212209b2b31df5254366115d3d3f679d2e36c00ec06b4ba5e97a357dd09d670ffde1c64736f6c634300081c0033",
  "linkReferences": {},
  "deployedLinkReferences": {}
}